:100000000C9434000C9449000C9449000C94490061
:100010000C9449000C9449000C9449000C9449003C
:100020000C9449000C9449000C9449000C9449002C
:100030000C9449000C9449000C9449000C9449001C
:100040000C9449000C9449000C9449000C9449000C
:100050000C9449000C9449000C9449000C944900FC
:100060000C9449000C94490011241FBECFEFD8E036
:10007000DEBFCDBF11E0A0E0B1E0EAE3F1E002C0F5
:1000800005900D92A031B107D9F70E944B000C9456
:100090009B000C94000084B18F6384B987B18360A6
:1000A00087B90E94600080E091E00E947F000E947A
:1000B0007800C82F0E9471008C2F0E949200F7CF09
:1000C0001092C50087E68093C400E0ECF0E08081E8
:1000D0008D7F808388E18093C10086E08093C20099
:1000E00008959091C00095FFFCCF8093C6000895BD
:1000F0008091C00087FFFCCF8091C60008951F93B8
:10010000CF93DF93EC0110E0FE01E10FF11D808140
:10011000811104C0DF91CF911F9108950E94710059
:100120001F5FF2CF982F9F73829586958695837077
:0A01300095B988B90895F894FFCF3F
:10013A0048656C6C6F20576F726C64210D0A000061
:00000001FF
