:100000000C9434000C9451000C9451000C94510049
:100010000C9451000C9451000C9451000C9451001C
:100020000C9451000C9451000C9451000C9451000C
:100030000C9451000C9451000C9451000C945100FC
:100040000C9451000C9451000C9451000C945100EC
:100050000C9451000C9451000C9451000C945100DC
:100060000C9451000C94510011241FBECFEFD8E026
:10007000DEBFCDBF11E0A0E0B1E0E4E7F1E002C0F7
:1000800005900D92A030B107D9F721E0A0E0B1E0D2
:1000900001C01D92A030B207E1F70E9453000C94FA
:1000A000B8000C94000000D0CDB7DEB70E949300DA
:1000B00080917C008F7380937C0080917A008760B0
:1000C00080937A0080917A00806880937A00809192
:1000D0007A00806280937A0080917A0080648093B5
:1000E0007A006091780080917900AE014F5F5F4F98
:1000F0000E94AB0089810E94A4002FEF80E792E06C
:10010000215080409040E1F700C000008A810E94A9
:10011000A4002FEF80E792E0215080409040E1F76B
:1001200000C00000DECF1092C50087E68093C400B7
:10013000E0ECF0E080818D7F808388E18093C100D6
:1001400086E08093C20008959091C00095FFFCCF97
:100150008093C6000895FA01982F990F862F881F63
:100160008827881F890F806880836F77618308954F
:04017000F894FFCF31
:00000001FF
