:100000000C9434000C943E000C943E000C943E0082
:100010000C943E000C943E000C943E000C943E0068
:100020000C943E000C943E000C943E000C943E0058
:100030000C943E000C943E000C943E000C943E0048
:100040000C943E000C943E000C943E000C943E0038
:100050000C943E000C943E000C943E000C943E0028
:100060000C943E000C943E0011241FBECFEFD8E04C
:10007000DEBFCDBF0E9440000C9479000C940000BC
:100080000E94610080917C008F7380937C0080913E
:100090007A00876080937A0080917A0080688093EC
:1000A0007A0080917A00806280937A0080917A0051
:1000B000806480937A0082E60E9472008091C00082
:1000C000FDCF1092C50087E68093C400E0ECF0E01D
:1000D00080818D7F808388E18093C10086E080935A
:1000E000C20008959091C00095FFFCCF8093C60098
:0600F0000895F894FFCF13
:00000001FF
