:100000000C9434000C9449000C9449000C94490061
:100010000C9449000C9449000C9449000C9449003C
:100020000C9449000C9449000C9449000C9449002C
:100030000C9449000C9449000C9449000C9449001C
:100040000C9449000C9449000C9449000C9449000C
:100050000C9449000C9449000C9449000C944900FC
:100060000C9449000C94490011241FBECFEFD8E036
:10007000DEBFCDBF11E0A0E0B1E0E6ECF0E002C0F1
:1000800005900D92A230B107D9F70E944B000C9455
:1000900061000C94000084B18F6384B987B18360E0
:1000A00087B9809100010E94580090E080E0089597
:1000B000982F9F73829586958695837095B988B998
:0600C0000895F894FFCF43
:0200C600B80080
:00000001FF
