:100000000C9434000C943E000C943E000C943E0082
:100010000C943E000C943E000C943E000C943E0068
:100020000C943E000C943E000C943E000C943E0058
:100030000C943E000C943E000C943E000C943E0048
:100040000C943E000C943E000C943E000C943E0038
:100050000C943E000C943E000C943E000C943E0028
:100060000C943E000C943E0011241FBECFEFD8E04C
:10007000DEBFCDBF0E9440000C94A5000C94000090
:100080000E945200809181008560809381001092CF
:1000900085001092840080918400909185000E94D8
:1000A0006A00F9CF1092C50087E68093C400E0ECA7
:1000B000F0E080818D7F808388E18093C10086E0BD
:1000C0008093C20008959091C00095FFFCCF80936B
:1000D000C6000895CF93DF93D82F292F30E0A901D0
:1000E000440F551F4F77CD2FCC1FCC27CC1FC42BCF
:1000F0002295269526952370822F80680E946300A2
:100100002FEF89EF90E0215080409040E1F700C050
:1001100000008C2F0E9463002FEF89EF90E02150A8
:1001200080409040E1F700C000008D2F8F770E9443
:1001300063002FEF89EF90E0215080409040E1F77D
:0E01400000C00000DF91CF910895F894FFCF2A
:00000001FF
