:100000000C9434000C9446000C9446000C9446006A
:100010000C9454000C9446000C9446000C9446003A
:100020000C9446000C9446000C9446000C94460038
:100030000C9446000C9446000C9446000C94460028
:100040000C9446000C9446000C9446000C94460018
:100050000C9446000C9446000C9446000C94460008
:100060000C9446000C94460011241FBECFEFD8E03C
:10007000DEBFCDBF21E0A0E0B1E001C01D92A13004
:10008000B207E1F70E9468000C949B000C940000FA
:10009000E8E6F0E0808182608083ECE6F0E0808139
:1000A00084608083789408958F938FB78F939F9304
:1000B000329909C088B192E0892788B980910001FE
:1000C0008F5F809300019F918F918FBF8F911895C3
:1000D00087B1836087B9429A0E94480041980E9484
:1000E0008300C1E088B18C2788B92FEF83ED90E3BE
:1000F000215080409040E1F700C000008091000155
:100100000E949400EFCF1092C50087E68093C40050
:10011000E0ECF0E080818D7F808388E18093C100F6
:1001200086E08093C20008959091C00095FFFCCFB7
:0A0130008093C6000895F894FFCFF5
:00000001FF
