:100000000C9434000C943E000C943E000C943E0082
:100010000C943E000C943E000C943E000C943E0068
:100020000C943E000C943E000C943E000C943E0058
:100030000C943E000C943E000C943E000C943E0048
:100040000C943E000C943E000C943E000C943E0038
:100050000C943E000C943E000C943E000C943E0028
:100060000C943E000C943E0011241FBECFEFD8E04C
:10007000DEBFCDBF0E9440000C946F000C940000C6
:100080000E945E0080917C008F7380937C00809141
:100090007A00876080937A0080917A0080688093EC
:1000A0007A0080917A00806280937A0080917A0051
:1000B000806480937A008091C000FDCF1092C500CB
:1000C00087E68093C400E0ECF0E080818D7F808340
:1000D00088E18093C10086E08093C2000895F8947F
:0200E000FFCF50
:00000001FF
