:100000000C9434000C943E000C943E000C943E0082
:100010000C943E000C943E000C943E000C943E0068
:100020000C943E000C943E000C943E000C943E0058
:100030000C943E000C943E000C943E000C943E0048
:100040000C943E000C943E000C943E000C943E0038
:100050000C943E000C943E000C943E000C943E0028
:100060000C943E000C943E0011241FBECFEFD8E04C
:10007000DEBFCDBF0E9440000C946F000C940000C6
:100080008AB18FEF8AB990E080E021E030E08730DC
:1000900091059CF0A901082E01C0440F0A94EAF7CB
:1000A0004BB94FEF53EC69E0415050406040E1F7ED
:1000B00000C00000019771F7EACFA901082E01C026
:1000C000440F0A94EAF74BB94FEF53EC69E0415003
:1000D00050406040E1F700C000000196D8CFF8948E
:0200E000FFCF50
:00000001FF
